{
  "_format": "hh-sol-artifact-1",
  "contractName": "MerkleAirdrop",
  "sourceName": "contracts/MerkleAirdrop.sol",
  "abi": [
    {
      "inputs": [
        {
          "internalType": "address",
          "name": "_rewardToken",
          "type": "address"
        },
        {
          "internalType": "bytes32",
          "name": "_merkleRoot",
          "type": "bytes32"
        }
      ],
      "stateMutability": "nonpayable",
      "type": "constructor"
    },
    {
      "inputs": [],
      "name": "AlreadyClaimed",
      "type": "error"
    },
    {
      "inputs": [],
      "name": "NotEnoughBalance",
      "type": "error"
    },
    {
      "inputs": [],
      "name": "NotInMerkle",
      "type": "error"
    },
    {
      "inputs": [],
      "name": "NotOwner",
      "type": "error"
    },
    {
      "anonymous": false,
      "inputs": [
        {
          "indexed": true,
          "internalType": "address",
          "name": "to",
          "type": "address"
        },
        {
          "indexed": false,
          "internalType": "uint256",
          "name": "amount",
          "type": "uint256"
        }
      ],
      "name": "Claim",
      "type": "event"
    },
    {
      "anonymous": false,
      "inputs": [
        {
          "indexed": true,
          "internalType": "address",
          "name": "to",
          "type": "address"
        },
        {
          "indexed": false,
          "internalType": "uint256",
          "name": "amount",
          "type": "uint256"
        }
      ],
      "name": "OwnerWithdraw",
      "type": "event"
    },
    {
      "anonymous": false,
      "inputs": [
        {
          "indexed": false,
          "internalType": "address",
          "name": "",
          "type": "address"
        }
      ],
      "name": "RootUpdated",
      "type": "event"
    },
    {
      "inputs": [
        {
          "internalType": "uint256",
          "name": "_amount",
          "type": "uint256"
        },
        {
          "internalType": "bytes32[]",
          "name": "proof",
          "type": "bytes32[]"
        }
      ],
      "name": "claim",
      "outputs": [
        {
          "internalType": "bool",
          "name": "success",
          "type": "bool"
        }
      ],
      "stateMutability": "nonpayable",
      "type": "function"
    },
    {
      "inputs": [
        {
          "internalType": "address",
          "name": "",
          "type": "address"
        }
      ],
      "name": "hasClaimed",
      "outputs": [
        {
          "internalType": "bool",
          "name": "",
          "type": "bool"
        }
      ],
      "stateMutability": "view",
      "type": "function"
    },
    {
      "inputs": [],
      "name": "merkleRoot",
      "outputs": [
        {
          "internalType": "bytes32",
          "name": "",
          "type": "bytes32"
        }
      ],
      "stateMutability": "view",
      "type": "function"
    },
    {
      "inputs": [],
      "name": "owner",
      "outputs": [
        {
          "internalType": "address",
          "name": "",
          "type": "address"
        }
      ],
      "stateMutability": "view",
      "type": "function"
    },
    {
      "inputs": [],
      "name": "rewardToken",
      "outputs": [
        {
          "internalType": "contract IERC20",
          "name": "",
          "type": "address"
        }
      ],
      "stateMutability": "view",
      "type": "function"
    },
    {
      "inputs": [
        {
          "internalType": "bytes32",
          "name": "_merkleRoot",
          "type": "bytes32"
        }
      ],
      "name": "updateMerkleRoot",
      "outputs": [
        {
          "internalType": "bool",
          "name": "success",
          "type": "bool"
        }
      ],
      "stateMutability": "nonpayable",
      "type": "function"
    },
    {
      "inputs": [
        {
          "internalType": "uint256",
          "name": "amount",
          "type": "uint256"
        }
      ],
      "name": "withdraw",
      "outputs": [],
      "stateMutability": "nonpayable",
      "type": "function"
    }
  ],
  "bytecode": "0x60806040523480156200001157600080fd5b5060405162000eee38038062000eee83398181016040528101906200003791906200016d565b8060008190555033600260006101000a81548173ffffffffffffffffffffffffffffffffffffffff021916908373ffffffffffffffffffffffffffffffffffffffff16021790555081600360006101000a81548173ffffffffffffffffffffffffffffffffffffffff021916908373ffffffffffffffffffffffffffffffffffffffff1602179055505050620001b4565b600080fd5b600073ffffffffffffffffffffffffffffffffffffffff82169050919050565b6000620000fa82620000cd565b9050919050565b6200010c81620000ed565b81146200011857600080fd5b50565b6000815190506200012c8162000101565b92915050565b6000819050919050565b620001478162000132565b81146200015357600080fd5b50565b60008151905062000167816200013c565b92915050565b60008060408385031215620001875762000186620000c8565b5b600062000197858286016200011b565b9250506020620001aa8582860162000156565b9150509250929050565b610d2a80620001c46000396000f3fe608060405234801561001057600080fd5b506004361061007d5760003560e01c80634783f0ef1161005b5780634783f0ef146100ec57806373b2e80e1461011c5780638da5cb5b1461014c578063f7c618c11461016a5761007d565b80632e1a7d4d146100825780632eb4a7ab1461009e5780632f52ebb7146100bc575b600080fd5b61009c6004803603810190610097919061085e565b610188565b005b6100a66103db565b6040516100b391906108a4565b60405180910390f35b6100d660048036038101906100d19190610924565b6103e1565b6040516100e3919061099f565b60405180910390f35b610106600480360381019061010191906109e6565b610670565b604051610113919061099f565b60405180910390f35b61013660048036038101906101319190610a71565b610709565b604051610143919061099f565b60405180910390f35b610154610729565b6040516101619190610aad565b60405180910390f35b61017261074f565b60405161017f9190610b27565b60405180910390f35b600260009054906101000a900473ffffffffffffffffffffffffffffffffffffffff1673ffffffffffffffffffffffffffffffffffffffff163373ffffffffffffffffffffffffffffffffffffffff161461020f576040517f30cd747100000000000000000000000000000000000000000000000000000000815260040160405180910390fd5b6000600360009054906101000a900473ffffffffffffffffffffffffffffffffffffffff1673ffffffffffffffffffffffffffffffffffffffff166370a08231306040518263ffffffff1660e01b815260040161026c9190610aad565b602060405180830381865afa158015610289573d6000803e3d6000fd5b505050506040513d601f19601f820116820180604052508101906102ad9190610b57565b90508181116102e8576040517fad3a8b9e00000000000000000000000000000000000000000000000000000000815260040160405180910390fd5b600360009054906101000a900473ffffffffffffffffffffffffffffffffffffffff1673ffffffffffffffffffffffffffffffffffffffff1663a9059cbb33846040518363ffffffff1660e01b8152600401610345929190610b93565b6020604051808303816000875af1158015610364573d6000803e3d6000fd5b505050506040513d601f19601f820116820180604052508101906103889190610be8565b503373ffffffffffffffffffffffffffffffffffffffff167f13c461eb29f5d65800bbef5a5b05a06ea13b8b2ef4b889ee170f149bc1c8f8bd836040516103cf9190610c15565b60405180910390a25050565b60005481565b6000600160003373ffffffffffffffffffffffffffffffffffffffff1673ffffffffffffffffffffffffffffffffffffffff16815260200190815260200160002060009054906101000a900460ff1615610467576040517f646cf55800000000000000000000000000000000000000000000000000000000815260040160405180910390fd5b6000338560405160200161047c929190610c99565b60405160208183030381529060405280519060200120905060006104e4858580806020026020016040519081016040528093929190818152602001838360200280828437600081840152601f19601f8201169050808301925050505050505060005484610775565b90508061051d576040517f8a585be200000000000000000000000000000000000000000000000000000000815260040160405180910390fd5b60018060003373ffffffffffffffffffffffffffffffffffffffff1673ffffffffffffffffffffffffffffffffffffffff16815260200190815260200160002060006101000a81548160ff021916908315150217905550600360009054906101000a900473ffffffffffffffffffffffffffffffffffffffff1673ffffffffffffffffffffffffffffffffffffffff1663a9059cbb33886040518363ffffffff1660e01b81526004016105d1929190610b93565b6020604051808303816000875af11580156105f0573d6000803e3d6000fd5b505050506040513d601f19601f820116820180604052508101906106149190610be8565b503373ffffffffffffffffffffffffffffffffffffffff167f47cee97cb7acd717b3c0aa1435d004cd5b3c8c57d70dbceb4e4458bbd60e39d48760405161065b9190610c15565b60405180910390a26001925050509392505050565b6000600260009054906101000a900473ffffffffffffffffffffffffffffffffffffffff1673ffffffffffffffffffffffffffffffffffffffff163373ffffffffffffffffffffffffffffffffffffffff16146106f9576040517f30cd747100000000000000000000000000000000000000000000000000000000815260040160405180910390fd5b8160008190555060019050919050565b60016020528060005260406000206000915054906101000a900460ff1681565b600260009054906101000a900473ffffffffffffffffffffffffffffffffffffffff1681565b600360009054906101000a900473ffffffffffffffffffffffffffffffffffffffff1681565b600082610782858461078c565b1490509392505050565b60008082905060005b84518110156107d1576107c2828683815181106107b5576107b4610cc5565b5b60200260200101516107dc565b91508080600101915050610795565b508091505092915050565b60008183106107f4576107ef8284610807565b6107ff565b6107fe8383610807565b5b905092915050565b600082600052816020526040600020905092915050565b600080fd5b600080fd5b6000819050919050565b61083b81610828565b811461084657600080fd5b50565b60008135905061085881610832565b92915050565b6000602082840312156108745761087361081e565b5b600061088284828501610849565b91505092915050565b6000819050919050565b61089e8161088b565b82525050565b60006020820190506108b96000830184610895565b92915050565b600080fd5b600080fd5b600080fd5b60008083601f8401126108e4576108e36108bf565b5b8235905067ffffffffffffffff811115610901576109006108c4565b5b60208301915083602082028301111561091d5761091c6108c9565b5b9250929050565b60008060006040848603121561093d5761093c61081e565b5b600061094b86828701610849565b935050602084013567ffffffffffffffff81111561096c5761096b610823565b5b610978868287016108ce565b92509250509250925092565b60008115159050919050565b61099981610984565b82525050565b60006020820190506109b46000830184610990565b92915050565b6109c38161088b565b81146109ce57600080fd5b50565b6000813590506109e0816109ba565b92915050565b6000602082840312156109fc576109fb61081e565b5b6000610a0a848285016109d1565b91505092915050565b600073ffffffffffffffffffffffffffffffffffffffff82169050919050565b6000610a3e82610a13565b9050919050565b610a4e81610a33565b8114610a5957600080fd5b50565b600081359050610a6b81610a45565b92915050565b600060208284031215610a8757610a8661081e565b5b6000610a9584828501610a5c565b91505092915050565b610aa781610a33565b82525050565b6000602082019050610ac26000830184610a9e565b92915050565b6000819050919050565b6000610aed610ae8610ae384610a13565b610ac8565b610a13565b9050919050565b6000610aff82610ad2565b9050919050565b6000610b1182610af4565b9050919050565b610b2181610b06565b82525050565b6000602082019050610b3c6000830184610b18565b92915050565b600081519050610b5181610832565b92915050565b600060208284031215610b6d57610b6c61081e565b5b6000610b7b84828501610b42565b91505092915050565b610b8d81610828565b82525050565b6000604082019050610ba86000830185610a9e565b610bb56020830184610b84565b9392505050565b610bc581610984565b8114610bd057600080fd5b50565b600081519050610be281610bbc565b92915050565b600060208284031215610bfe57610bfd61081e565b5b6000610c0c84828501610bd3565b91505092915050565b6000602082019050610c2a6000830184610b84565b92915050565b60008160601b9050919050565b6000610c4882610c30565b9050919050565b6000610c5a82610c3d565b9050919050565b610c72610c6d82610a33565b610c4f565b82525050565b6000819050919050565b610c93610c8e82610828565b610c78565b82525050565b6000610ca58285610c61565b601482019150610cb58284610c82565b6020820191508190509392505050565b7f4e487b7100000000000000000000000000000000000000000000000000000000600052603260045260246000fdfea26469706673582212205910136cd6ac80d5ccfd5b5e12ef12192f4a19f9767c1edba84e44900d2edd5564736f6c63430008180033",
  "linkReferences": {},
  "deployedLinkReferences": {}
}